:08000000803102288731FD2F39
:100F5A008731B42787318731BD27803102282100A4
:100F6A0099171908873970389900FC3099050800D3
:100F7A0022008C018D018E01193021008C00E03095
:100F8A008D0008308E00C73023008E0030308D006F
:100F9A0017308C00F03024008D003F308C00FF3079
:100FAA008E00210095138B1355303C008F00AA3018
:100FBA008F000F101508E039133895001008E03932
:100FCA000E3890003D002408F0390938A4003C008E
:100FDA001708E0390F3897003D001508F039033833
:100FEA00950055303C008F00AA308F000F1408007E
:060FFA0020008731AD2F3D
:020000040001F9
:04000E00A4FFFBFF51
:00000001FF
